:020000001528C1
:0C00060083120D088A000C08820008001C
:1000120003208A110A128000840A8C0A03198D0AAD
:08002200C003031D09280800BA
:10002A0083168501831285010630CB001330CC007C
:10003A00AD30CD00CD0B1F28CC0B1F28CB0B1F28B2
:10004A0000000000073085000B30CB002630CC00C2
:10005A005D30CD00CD0B2F28CC0B2F28CB0B2F28B2
:10006A000000000085010630CB001330CC00AD3013
:10007A00CD00CD0B3E28CC0B3E28CB0B3E280000F2
:06008A00000017284728C2
:02400E00FA3F77
:00000001FF
